:020000040000FA
:100000000C9462000C94F5060C94CE060C948A00B5
:100010000C948A000C948A000C948A000C948A0038
:100020000C948A000C948A000C948A000C941C078F
:100030000C948A000C948A000C948A000C948A0018
:100040000C9484060C948A000C9452060C942C0692
:100050000C948A000C948A000C948A000C948A00F8
:100060000C94D8070C948A0000000000230026009E
:10007000290000000008000201000003040700003E
:1000800000000000000000000000250028002B00F8
:1000900000000000240027002A00040404040404D3
:1000A0000404020202020202030303030303010227
:1000B00004081020408001020408102001020408F6
:1000C0001020F70811241FBECFEFD8E0DEBFCDBF50
:1000D00011E0A0E0B1E0E4EDF0E202C005900D9285
:1000E000AC35B107D9F723E0ACE5B1E001C01D9212
:1000F000AA3CB207E1F710E0C2E6D0E004C02197C5
:10010000FE010E94C10DC136D107C9F70E94130A32
:100110000C9468100C94000008950895AF92BF925B
:10012000CF92DF92EF92FF920F931F93CF93DF93C3
:100130006C017B018B01040F151FEB015E01AE18F2
:10014000BF08C017D10759F06991D601ED91FC9114
:100150000190F081E02DC6010995892B79F7C50141
:10016000DF91CF911F910F91FF90EF90DF90CF9093
:10017000BF90AF900895FC01538D448D252F30E042
:10018000842F90E0821B930B541710F0CF960895A4
:1001900001970895FC01918D828D981761F0A28DD1
:1001A000AE0FBF2FB11D5D968C91928D9F5F9F7397
:1001B000928F90E008958FEF9FEF0895FC01918D4D
:1001C000828D981731F0828DE80FF11D858D90E0BA
:1001D00008958FEF9FEF0895FC01918D228D892F57
:1001E00090E0805C9F4F821B91098F73992708953F
:1001F0008CE192E00E94EC0021E0892B09F420E0E0
:10020000822F089580E090E0892B29F00E94F80069
:1002100081110C9400000895FC01A48DA80FB92F42
:10022000B11DA35ABF4F2C91848D90E001968F731E
:100230009927848FA689B7892C93A089B1898C913D
:10024000837080648C93938D848D981306C002888C
:10025000F389E02D80818F7D80830895EF92FF9256
:100260000F931F93CF93DF93EC0181E0888F9B8DD9
:100270008C8D98131AC0E889F989808185FF15C093
:100280009FB7F894EE89FF896083E889F9898081B6
:100290008370806480839FBF81E090E0DF91CF9185
:1002A0001F910F91FF90EF900895F62E0B8D10E0A7
:1002B0000F5F1F4F0F731127E02E8C8D8E110CC016
:1002C0000FB607FCFACFE889F989808185FFF5CF61
:1002D000CE010E940C01F1CFEB8DEC0FFD2FF11D33
:1002E000E35AFF4FF0829FB7F8940B8FEA89FB899E
:1002F00080818062CFCFCF93DF93EC01888D8823FC
:10030000B9F0AA89BB89E889F9898C9185FD03C078
:10031000808186FD0DC00FB607FCF7CF8C9185FF5D
:10032000F2CF808185FFEDCFCE010E940C01E9CF95
:10033000DF91CF910895833081F028F4813099F0D6
:100340008230A9F008958730A9F08830C9F0843050
:10035000B1F4809180008F7D03C0809180008F7701
:1003600080938000089584B58F7784BD089584B507
:100370008F7DFBCF8091B0008F778093B000089580
:100380008091B0008F7DF9CF1F93CF93DF93282FFB
:1003900030E0F901EE58FF4F8491F901E255FF4F2B
:1003A000D491F901E656FF4FC491CC23A9F0162F42
:1003B00081110E949B01EC2FF0E0EE0FFF1FEA5726
:1003C000FF4FA591B4918FB7F894EC91111108C02B
:1003D000D095DE23DC938FBFDF91CF911F910895DD
:1003E000DE2BF8CF3FB7F894809110029091110264
:1003F000A0911202B091130226B5A89B05C02F3F11
:1004000019F00196A11DB11D3FBFBA2FA92F982F3A
:100410008827BC01CD01620F711D811D911D42E035
:10042000660F771F881F991F4A95D1F708958F92FD
:100430009F92AF92BF92CF92DF92EF92FF924B01C9
:100440005C010E94F2016B017C010E94F2016C19B7
:100450007D098E099F09683E734081059105A8F3C7
:1004600021E0821A9108A108B10888EEC80E83E045
:10047000D81EE11CF11C81149104A104B10429F7D8
:10048000FF90EF90DF90CF90BF90AF909F908F90B4
:10049000089508958F929F92AF92BF92CF92DF926C
:1004A000EF92FF92FC0180818E3008F08E508770B1
:1004B000806480937C0080917A00806480937A00CD
:1004C00080917A0086FDFCCF909178002091790090
:1004D000C680D7800D2C000CEE08FF088280938028
:1004E000092C000CAA08BB08322F292F032E000C60
:1004F000440B550B281939094A095B096085718538
:10050000072E000C880B990B6C197D098E099F0929
:100510000E94A50D24813581032E000C440B550B40
:10052000281939094A095B090E940B0DDA01C90132
:100530008C0D9D1DAE1DBF1DFF90EF90DF90CF90E5
:10054000BF90AF909F908F9008952091C401260F87
:100550003327331F21323105ECF42091E801FC01EF
:1005600090E080E0243069F082E00895A091C40119
:100570002191AC014C555E4FA40FB52FB11D2C93AA
:100580000196861798F38091C401680F6093C401A7
:1005900080E0089581E008951092E80181E0809361
:1005A000EA011092E90161E082E10E94C40161E088
:1005B00083E10E94C401E9EBF0E080818E7F8083BB
:1005C00080818D7F808388E48093B80085E4809368
:1005D000BC000895CF93DF9391E09093A30188230B
:1005E000B9F0C091B800D091BA008091BC008A7B6C
:1005F0008093BC0060E082E10E94C40160E083E17E
:100600000E94C4010E94CC02D093BA00C093B800EB
:10061000DF91CF9108950895E0911B0280911A0215
:10062000E81730F4F0E0E258FE4F808190E0089542
:100630008FEF9FEF089590911B0280911A022FEF88
:100640003FEF981748F4E92FF0E0E258FE4F208181
:1006500030E09F5F90931B02C901089580911A02B8
:1006600090911B02891B990B0895CF92DF92EF9214
:10067000FF920F931F93CF93DF937C01CB018A01ED
:1006800020917D01222389F0EB016B01C40ED51E60
:10069000CC15DD0569F06991D701ED91FC910190D0
:1006A000F081E02DC7010995F3CF642F0E94A502C8
:1006B000C801DF91CF911F910F91FF90EF90DF90D4
:1006C000CF900895CF93DF931F92CDB7DEB76983A4
:1006D00020917D012223F9F020911802203258F058
:1006E00021E030E0FC013383228390E080E00F9032
:1006F000DF91CF91089580911902E82FF0E0E35A3D
:10070000FE4F998190838F5F809319028093180226
:1007100081E090E0ECCF61E0CE0101960E94A5025D
:10072000F7CFCF92DF92EF92FF920F931F93CF9369
:10073000DF93FC01C48121E020937D01C0935C0123
:1007400010921902109218028385682B89EB92E0AF
:100750000E946203D0911802D13208F092C00E9428
:10076000F2016B017C018091E801811165C082E09A
:100770008093E80181E08093EA018FEF8093E701A5
:1007800010920C02D0930B02ADE5B1E0EBEEF1E07C
:1007900080E0D81385C010920D0280910D02CC0F1D
:1007A000C82BC0930D028091E901813009F07CC013
:1007B0001092E9010E94F2016B017C0180910D020F
:1007C0008093BB0080919F019091A001A091A10115
:1007D000B091A201892B8A2B8B2B99F00E94F201F8
:1007E00000919F011091A0012091A1013091A201DF
:1007F0006C197D098E099F09061717072807390705
:10080000E0F18091BC0083FDD9CF85EC8093BC00E2
:100810000E94F2016B017C018091E801823009F4B1
:1008200045C08091E7018F3F61F18091E7018032FF
:1008300041F18091E70125C080919F019091A00135
:10084000A091A101B091A201892B8A2B8B2B09F4D5
:100850008ACF0E94F20100919F011091A001209186
:10086000A1013091A2016C197D098E099F0906171B
:1008700017072807390708F076CF80919E010E945C
:10088000EA02109219021092180210927D01DF9173
:10089000CF911F910F91FF90EF90DF90CF9008952F
:1008A0009D9191938F5F75CF85EEB0CF80919F0121
:1008B0009091A001A091A101B091A201892B8A2B56
:1008C0008B2B09F4A9CF0E94F20100919F01109196
:1008D000A0012091A1013091A2016C197D098E091E
:1008E0009F09061717072807390708F095CFC5CFC6
:1008F000089590E080E0089585ED8093BC0080919C
:100900009F019091A001A091A101B091A201079631
:10091000A11DB11D23E0B695A795979587952A95BA
:10092000D1F72091BC0024FD03C01092E801089586
:1009300040919F015091A0016091A1017091A2018D
:10094000452B462B472B69F30097A105B10541F0D4
:1009500025E32A95F1F700000197A109B109E1CF3C
:1009600080919E010C94EA020F931F93CF938C0108
:10097000C62F0E9491036C2F6460C8010E949103EE
:100980006C2F6B7FC8010E94910383EC90E001976C
:10099000F1F7CF911F910F9108950F931F93CF936C
:1009A000DF938C01D62FC42F607F642B0E94B40488
:1009B00080E1D89FB00111246C2BC801DF91CF9149
:1009C0001F910F910C94B404EF92FF921F93CF9359
:1009D000DF93CDB7DEB769970FB6F894DEBF0FBED1
:1009E000CDBF182F7F936F938CE391E09F938F93EC
:1009F000CE0101967C019F938F930E94C70D812F9A
:100A000098E0E4E0F1E0DE01529601900D929A95B3
:100A1000E1F7909119030F900F900F900F900F90A6
:100A20000F90911710F48FEF890FE82FF0E0EE0F81
:100A3000FF1FEE0DFF1D6189606840E081E193E0DA
:100A40000E94CD04F70101900020E9F73197AF0132
:100A50004E195F09B70181E193E00E948E0069960B
:100A60000FB6F894DEBF0FBECDBFDF91CF911F91BF
:100A7000FF90EF900895CF92DF92EF92FF920F9345
:100A80001F93CF93DF93CDB7DEB761970FB6F8947E
:100A9000DEBF0FBECDBF83E093E00E944A028C010F
:100AA00089EF92E00E944A02E82ED92E4091F1028D
:100AB0005091F2025527FA01EE58FF4F8491FA0146
:100AC000E255FF4FF490FA01E656FF4FC490CC2058
:100AD00009F4B9C081110E949B01EC2DF0E0EE0FEA
:100AE000FF1FE859FF4FA591B491EC91FE2231E030
:100AF00020E009F430E0832F922F21E082279F939A
:100B00008F93DF92EF921F930F9382E491E09F9374
:100B10008F93CE0101967C019F938F930E94C70D06
:100B20000FB6F894DEBF0FBECDBF8091C90381110F
:100B300005C0B70181E090E00E94E404003292E039
:100B400019070CF03DC08091EF02E8E8CE2ED12CC1
:100B5000C81AD10887FDD394CC0CDD1CCC0CDD1C4D
:100B60000D2C000CEE08FF088091F00228E532E021
:100B7000281B310987FD3395220F331F220F331FA6
:100B8000032E000C440B550B2C193D094E095F092F
:100B9000D801053B110514F0A4EBB0E0B7FF02C08B
:100BA000B0E0A0E00E94350D24EB30E040E050E0E2
:100BB0000E940B0D89019A010C0D1D1D2E1D3F1D5C
:100BC000E091EE02EC3080F52091EF0288E890E0B1
:100BD000821B910927FD9395880F991F880F991FF4
:100BE0000817190784F02091F00288E592E0821B33
:100BF000910927FD9395880F991F880F991F081752
:100C000019070CF4C8010297880F991F4FB7F89481
:100C10002E2F30E0F901EE0FFF1FE20FF31FEB5311
:100C2000FD4F928381834FBF61960FB6F894DEBF6C
:100C30000FBECDBFDF91CF911F910F91FF90EF902D
:100C4000DF90CF90089590E080E057CF41E00E9480
:100C5000CD0481E090E008951F920F920FB60F929D
:100C600011242F933F934F935F936F937F938F93B1
:100C70009F93AF93BF93EF93FF938CE192E00E9419
:100C80000C01FF91EF91BF91AF919F918F917F9157
:100C90006F915F914F913F912F910F900FBE0F90E9
:100CA0001F9018951F920F920FB60F9211242F9339
:100CB0008F939F93EF93FF93E0912C02F0912D027D
:100CC0008081E0913202F091330282FD1BC090815D
:100CD000809135028F5F8F7320913602821741F029
:100CE000E0913502F0E0E45EFD4F958F8093350290
:100CF000FF91EF919F918F912F910F900FBE0F90C9
:100D00001F9018958081F4CF1F920F920FB60F920B
:100D100011242F933F938F939F93AF93BF93809111
:100D2000EA029091EB02A091EC02B091ED023091B9
:100D30000F0223E0230F2D3758F50196A11DB11D99
:100D400020930F028093EA029093EB02A093EC02AF
:100D5000B093ED028091100290911102A0911202C5
:100D6000B09113020196A11DB11D809310029093C2
:100D70001102A0931202B0931302BF91AF919F9101
:100D80008F913F912F910F900FBE0F901F9018954C
:100D900026E8230F0296A11DB11DD2CF1F920F92FC
:100DA0000FB60F9211242F933F934F935F936F933E
:100DB0007F938F939F93AF93BF93EF93FF93E091B4
:100DC0000201F09103010995FF91EF91BF91AF915D
:100DD0009F918F917F916F915F914F913F912F9153
:100DE0000F900FBE0F901F9018951F920F920FB685
:100DF0000F9211242F933F934F935F936F937F93A1
:100E00008F939F93AF93BF93EF93FF93E091000174
:100E1000F09101010995FF91EF91BF91AF919F91E1
:100E20008F917F916F915F914F913F912F910F9093
:100E30000FBE0F901F9018951F920F920FB60F9232
:100E400011242F933F934F935F936F937F938F93CF
:100E50009F93AF93BF93CF93DF93EF93FF938091D3
:100E60000E02C091E902D0E087FF24C010928500F5
:100E70001092840080910E028F5F80930E02809109
:100E80000E02082E000C990B8C179D0724F48091FC
:100E90000E028C30C4F180918400909185000496FC
:100EA00080349C4908F47AC0809184009091850038
:100EB000049676C080910E02082E000C990B8C17B8
:100EC0009D07C4F6E0910E028E2FEE0F990BFC01E8
:100ED000EE0FFF1FE80FF91FEB53FD4F808186FFD8
:100EE000C9CFE0910E028E2FEE0F990BFC01EE0F91
:100EF000FF1FE80FF91FEB53FD4F808160E08F73F8
:100F00000E94C401B7CF2091840030918500E09108
:100F10000E028E2FEE0F990BFC01EE0FFF1FE80F54
:100F2000F91FEB53FD4F81819281820F931F9093A4
:100F3000890080938800E0910E028E2FEE0F990BAE
:100F4000FC01EE0FFF1FE80FF91FEB53FD4F8081EF
:100F500086FF11C0E0910E028E2FEE0F990BFC015F
:100F6000EE0FFF1FE80FF91FEB53FD4F808161E08B
:100F70008F730E94C401FF91EF91DF91CF91BF91D8
:100F8000AF919F918F917F916F915F914F913F9121
:100F90002F910F900FBE0F901F90189580E49CE941
:100FA00090938900809388008FEF80930E02E3CFA7
:100FB0001F920F920FB60F9211242F933F934F93CE
:100FC0005F936F937F938F939F93AF93BF93EF93B1
:100FD000FF938091B900887F803609F44AC0F0F50C
:100FE000883209F4A7C018F5803109F49BC0B8F421
:100FF000882309F4F9C0883009F494C0FF91EF9177
:10100000BF91AF919F918F917F916F915F914F9120
:101010003F912F910F900FBE0F901F901895883120
:1010200009F488C0803251F78093E70114C08034FE
:1010300009F49DC040F48033B9F38833F9F6809306
:10104000E70185ECB0C0803509F485C0883509F426
:1010500096C0883499F60E947C04D0CF883909F470
:101060008CC038F5883729F050F4883611F0803775
:1010700029F683E08093E8011092E60157C0883892
:1010800009F47BC0803919F0803809F0B7CF80911E
:10109000E601803208F071C0E091E60181E08E0F38
:1010A0008093E6018091BB00F0E0EA53FE4F80831D
:1010B0003DC0803B39F0E0F4803A09F479C0883AC9
:1010C00009F09CCF84E08093E8011092C501109252
:1010D000C401E0911602F091170209958091C401B4
:1010E00081110FC081E08093C4011092A40109C056
:1010F000803C09F4A6CF883C09F4A3CF883B09F0D3
:101100007DCFE091C50181E08E0F8093C501F0E0B5
:10111000EC55FE4F80818093BB009091C50180917A
:10112000C40129C080910D028093BB0085EC80939F
:10113000BC0064CF90910C0280910B02981758F577
:10114000E0910C0281E08E0F80930C02F0E0E551FB
:10115000FE4F8081E9CFE0910C0281E08E0F8093F9
:101160000C028091BB00F0E0E551FE4F808390912E
:101170000C0280910B029817C8F285E8D8CFE09155
:101180000C0281E08E0F80930C028091BB00F0E096
:10119000E551FE4F80838091EA0181115CCF81E0AF
:1011A0008093E90184EA8093BC001092E80126CF85
:1011B00085EC8093BC001092E8018091E6018032BA
:1011C00030F4E091E601F0E0EA53FE4F10826091C6
:1011D000E60170E0E0911402F091150286EC91E0D6
:1011E00009951092E6010ACF1092E70134CFCF9310
:1011F000DF9310921F0210921E0288EE93E0A0E08F
:10120000B0E08093200290932102A0932202B09339
:10121000230220E131E030931D0220931C0225ECD3
:1012200030E0309329022093280224EC30E0309300
:101230002B0220932A0220EC30E030932D022093E1
:101240002C0221EC30E030932F0220932E0222EC6E
:1012500030E0309331022093300226EC30E03093BE
:10126000330220933202109235021092360210920D
:101270003702109238021092BC021092BB02809387
:10128000BD029093BE02A093BF02B093C00282E25F
:1012900091E09093BA028093B90280E092ECA1E0D1
:1012A000B0E080930D0390930E03A0930F03B093CF
:1012B0001003109214031092130384E391E09093AF
:1012C00012038093110387E28093150380E18093DA
:1012D0001A0382E080931B0310921C038FB7F894CB
:1012E0004091EA025091EB026091EC027091ED02A4
:1012F0008FBFC9EAD3E0E5E4F3E02DE133E01992D2
:1013000011921192D9014D935D936D937D939D013F
:10131000CF01825B9F4FDC011D921C92B3E0E93547
:10132000FB0769F71092C8031092C7031092C90314
:101330008EE090E0909304038093030310920603E1
:10134000109205038FEF93E09093080380930703B7
:1013500010920A031092090324EB30E030930C033F
:1013600020930B032FE030E03093FA022093F90230
:101370001092FC021092FB029093FE028093FD02F9
:1013800084E690E0909300038093FF028CE99FEF46
:10139000909302038093010380E190E09093F20226
:1013A0008093F102EEEBF0E02491EAEAF0E0849120
:1013B0008823C1F090E0880F991FFC01E057FF4F90
:1013C000C591D491FC01EA57FF4FA591B4919FB705
:1013D000F8943881822F809583238883EC91E22BC7
:1013E000EC939FBF1092F4021092F3028091E902F5
:1013F0008C30A8F491E0980F9093E9028093EE026C
:1014000090E0FC01EE0FFF1FE80FF91FEB53FD4FBB
:1014100088EB9BE092838183DF91CF9108958FEFDA
:101420008093EE02F9CFCF93DF9300D000D0CDB7F9
:10143000DEB7789484B5826084BD84B5816084BD54
:1014400085B5826085BD85B5816085BD80916E0062
:10145000816080936E001092810080918100826093
:1014600080938100809181008160809381008091D0
:1014700080008160809380008091B10084608093BF
:10148000B1008091B00081608093B00080917A00BB
:10149000846080937A0080917A00826080937A00E1
:1014A00080917A00816080937A0080917A008068D0
:1014B00080937A001092C100C0900D03D0900E036B
:1014C000E0900F03F090100360E079E08DE390E08E
:1014D000A70196010E94740D21503109410951095B
:1014E0005695479537952795E0912C02F0912D025E
:1014F00082E08083C11441EED406E104F10421F0BE
:10150000211580E13807A8F0E0912C02F0912D021E
:10151000108260E874E88EE190E0A70196010E94D5
:10152000740D215031094109510956954795379558
:101530002795E0912802F09129023083E0912A0258
:10154000F0912B02208310923402E0913002F0914E
:10155000310286E08083E0912E02F0912F0280819B
:1015600080618083E0912E02F0912F02808188605B
:101570008083E0912E02F0912F0280818068808329
:10158000E0912E02F0912F0280818F7D80838091E7
:10159000C903811189C010921B0210921A02109285
:1015A0001902109218020E94CC028CE890E09093ED
:1015B0001702809316028DE890E0909315028093B5
:1015C00014021092160380911B03823018F098E0E9
:1015D000909316038093190362E370E080E090E03B
:1015E0000E94170260911C0381E193E00E94910325
:1015F00068EE73E080E090E00E94170260E381E112
:1016000093E00E94B4048BE496E40197F1F760E361
:1016100081E193E00E94B404ABE4B6E41197F1F7E2
:1016200060E381E193E00E94B40483E592E00197D6
:10163000F1F760E281E193E00E94B4046091160347
:10164000606240E081E193E00E94CD0484E08093F9
:10165000170340E06CE081E193E00E94CD0440E09C
:1016600061E081E193E00E94CD048BE39FE101976B
:10167000F1F782E08093180340E066E081E193E0B7
:101680000E94CD0440E062E081E193E00E94CD043D
:10169000EBE3FFE13197F1F788E080931C0360E012
:1016A00081E193E00E9491038091C7039091C80368
:1016B0000A976CF4E5E4F3E090E080E02191319149
:1016C000232B09F464C101968A309105B9F7809102
:1016D000C903811106C06EE471E090E080E00E94D1
:1016E000E4048091EE028C3008F068C0E1EBF0E099
:1016F0002491EDE9F0E08491882399F090E0880F3F
:10170000991FFC01E057FF4FA591B491FC01EA57E6
:10171000FF4F859194918FB7F894EC91E22BEC9365
:101720008FBF8091EE02282F30E0F901EE0FFF1FEE
:10173000E20FF31FEB53FD4F9081907C93609083F9
:101740001092EF021092F0022CE0622F0E94B50D71
:10175000829FB001112430E020E0AB01420F531F03
:10176000FA01EE0FFF1FE40FF51FEB53FD4F9081C1
:1017700096FD16C02F5F3F4F2C30310571F7811158
:101780000FC01092800082E080938100109285004B
:1017900010928400B19A80916F00826080936F00F4
:1017A000E091EE028E2F90E0FC01EE0FFF1FE80F9C
:1017B000F91FEB53FD4F80818064808301E010E0CE
:1017C000B2E02B2E312C8FB7F8948090EA029090E3
:1017D000EB02A090EC02B090ED028FBFE5E4F3E0E5
:1017E0002DE033E03C832B833A83298390E080E033
:1017F000AF0142595F4FDA011D921C922081318165
:101800003296232BC9F1A981BA8150964D915D91F1
:101810006D917C9153979D01245B3F4FD901CD90F1
:10182000DD90ED90FC9024013501441A550A660ABA
:10183000770A4C145D046E047F04F0F04C0D5D1DBE
:101840006E1D7F1DA981BA8150964D935D936D9356
:101850007C9353979C0127553C4FD9012C9122230F
:1018600059F022AD33AD21153105C9F59F01245939
:101870003F4FD9010D931C93019629813A812C5F2A
:101880003F4F3A8329838A30910509F0B1CFF12C7B
:10189000E12CCB80DC8036EAC30ED11CD6018D91C1
:1018A0009C9181309105C1F10297E9F1BFEFEB1AEC
:1018B000FB0AEB81FC813296FC83EB83FAE0EF16A6
:1018C000F10439F720E030E0232B09F47CCF0E94AB
:1018D000F800882309F477CF0E94000074CF7F01BD
:1018E000BEE4EB0EF11CD7016D917C91621773077A
:1018F0001CF6AF0144595F4FDA010D931C936F5FE3
:101900007F4FD7016D937C93621773070CF4B4CFAC
:10191000DA012D923C92B0CFAB81BC81D896ED918B
:10192000FC910995C3CFAB81BC81D896ED91FC9118
:1019300009958091C7039091C803009709F4B6CF29
:10194000EB81FC8120AD31AD232B09F4AFCF11AE7B
:1019500010AEF701E755FC4F1082D6011D921C9284
:10196000F701EE0FFF1FEE0FFF1FE75AFC4F10822B
:10197000118212821382EB81FC81E857FF4F1182A2
:10198000108201979093C8038093C7038FCFFC0107
:10199000EE0FFF1FEE0FFF1FE75BFC4F44E650E02A
:1019A00060E070E0408B518B628B738BFC01EE0F1B
:1019B000FF1FEB5CFC4F2BE335E0318B208BFC01F0
:1019C000EE0FFF1FEF58FC4F118A108AFC01E755FC
:1019D000FC4F21E020832FB7F8944091EA02509108
:1019E000EB026091EC027091ED022FBF880F991FFE
:1019F000880F991FFC01E35FFC4F408B518B628B7A
:101A0000738B8091C7039091C80301969093C8038C
:101A10008093C7035CCE052E97FB1EF400940E94B2
:101A2000220D57FD07D00E94740D07FC03D04EF421
:101A30000C94220D50954095309521953F4F4F4F76
:101A40005F4F089590958095709561957F4F8F4F6A
:101A50009F4F08950E94960DA59F900DB49F900DE5
:101A6000A49F800D911D11240895B7FF0C942A0D99
:101A70000E942A0D821B930B08952F923F924F9242
:101A80005F926F927F928F929F92AF92BF92CF920E
:101A9000DF92EF92FF920F931F93CF93DF93CDB717
:101AA000DEB7CA1BDB0B0FB6F894DEBF0FBECDBF8F
:101AB00009942A88398848885F846E847D848C8460
:101AC0009B84AA84B984C884DF80EE80FD800C8169
:101AD0001B81AA81B981CE0FD11D0FB6F894DEBF4C
:101AE0000FBECDBFED010895A1E21A2EAA1BBB1BAC
:101AF000FD010DC0AA1FBB1FEE1FFF1FA217B307DA
:101B0000E407F50720F0A21BB30BE40BF50B661FEF
:101B1000771F881F991F1A9469F7609570958095B3
:101B200090959B01AC01BD01CF010895A29FB0012A
:101B3000B39FC001A39F700D811D1124911DB29F01
:101B4000700D811D1124911D0895DB018F939F93CA
:101B50000E942A0DBF91AF91A29F800D911DA39F5E
:101B6000900DB29F900D11240895991B79E004C047
:101B7000991F961708F0961B881F7A95C9F78095CC
:101B80000895EE0FFF1F0590F491E02D0994AEE04B
:101B9000B0E0EDECFDE00C944B0D0D891E8986E064
:101BA0008C831A8309838FEF9FE79E838D83AE0119
:101BB000475E5F4F6F89788DCE0101960E94EA0DD6
:101BC0002F813885020F131FF80110822E96E4E052
:101BD0000C94670DABE0B0E0E0EFFDE00C943D0D40
:101BE0007C013B018A01FC0117821682838181FFFF
:101BF000C8C1CE0101965C01F7019381F30193FD09
:101C0000859193FF81913F01882309F453C1853267
:101C100039F493FD859193FF81913F01853229F439
:101C2000B70190E00E94DA0FE7CF912C212C312CE4
:101C3000FFE1F31538F08B3211F190F4803209F1A5
:101C4000833229F137FC3CC020ED280F2A3050F5B3
:101C500036FE20C08AE0989E200D1124922E06C0E8
:101C60008D3291F0803371F7689430F8F30193FD71
:101C7000859193FF81913F018111DACF21C0689452
:101C800031F8689432F8F2CF689433F8EFCF689463
:101C900034F8ECCFEAE02E9E200D1124222E689419
:101CA00035F8E4CF8E3229F436FC04C1689436F856
:101CB000DDCF8C3619F4689437F8D8CF8836B1F276
:101CC000982F9F7D95549330E0F08336A1F18337B0
:101CD000C1F1833509F063C02801F2E04F0E511CB9
:101CE000F801C080D180692D70E036FC02C06FEF32
:101CF0007FEFC6010E94C40F4C01689437F882013F
:101D00000AC00C5F1F4FFFE3F98388248394912C52
:101D10006501E89437F833FE2DC0522C81149104EC
:101D200071F5552009F468CFB70180E290E00E9478
:101D3000DA0F5A94F6CFF801808189830E5F1F4F26
:101D4000E4CF2801F2E04F0E511CF801C080D18091
:101D5000692D70E036FC02C06FEF7FEFC6010E9474
:101D6000CF0F4C018201D5CFB70180E290E00E94F5
:101D7000DA0F2A942814190409F0B0F7CECFF6012F
:101D800037FC859137FE81916F01B70190E00E9489
:101D9000DA0F51105A94F1E08F1A9108BFCF8436B0
:101DA00019F0893609F077C0F80137FE6BC0608101
:101DB0007181828193810C5F1F4FF32DFF763F2E3F
:101DC00097FF09C090958095709561957F4F8F4FD3
:101DD0009F4F689437F82AE030E0A5010E940A106E
:101DE000C82ECA188C2C432C36FE0CC0E89440F840
:101DF000C91440F434FE05C032FC03C0F32DFE7E4E
:101E00004F2E892C44FE95C0FE01EC0DF11D808102
:101E1000803309F087C0242D297E422E842D8870BE
:101E2000582E43FC95C040FE8FC09C2C821418F4A1
:101E30002C0C922C981844FE91C0B70180E390E0DE
:101E40000E94DA0F42FE09C088E790E041FE02C01E
:101E500088E590E0B7010E94DA0FC91408F48AC03F
:101E6000CA94D12C9FEFC91AD90ACA0CDB1CF601FF
:101E700082916F01B70190E00E94DA0FAC14BD04AB
:101E8000B1F74FCF60817181072E000C880B990B41
:101E90000E5F1F4F92CFD32CE894D4F82AE030E0A5
:101EA000853739F1232D297FD22E8F3601F148F461
:101EB0008835A9F0F701868197812B96E2E10C9491
:101EC000590D803749F08837A9F7D4FE02C06894CD
:101ED000D2F820E130E00DC06894D4F8F6CF34FE9B
:101EE00003C0822F8660D82E20E132E002C028E0B5
:101EF00030E0F801D7FE0FC060817181828193814B
:101F00000C5F1F4FA5010E940A10C82ECA183D2C55
:101F1000E89437F867CF6081718190E080E00E5FD0
:101F20001F4FF0CF42FC02C0839478CF83948394F8
:101F300075CF842D867809F471CFF6CFB70180E292
:101F400090E00E94DA0F83948214C0F3512C73CF77
:101F5000522C5818821408F46ECFF8CF842D86784E
:101F600009F47BCF8BE241FE80E247FC8DE2B701B2
:101F700090E071CFB70180E390E00E94DA0F9A946D
:101F80006CCF8FEF9FEF99CFFC01059061507040AF
:101F90000110D8F7809590958E0F9F1F0895FC0132
:101FA0006150704001900110D8F7809590958E0F88
:101FB0009F1F08950F931F93CF93DF93182F092F1F
:101FC000EB018B8181FD09C01FEF0FEF812F902F57
:101FD000DF91CF911F910F91089582FF14C02E8140
:101FE0003F818C819D81281739073CF4E881F98174
:101FF000CF0101969983888310838E819F810196FA
:102000009F838E83E3CFE885F985812F0995892BFE
:10201000A1F3DACFFA01AA27283051F1203181F15A
:10202000E8946F936E7F6E5F7F4F8F4F9F4FAF4FE0
:10203000B1E03ED0B4E03CD0670F781F891F9A1FF3
:10204000A11D680F791F8A1F911DA11D6A0F711DA7
:10205000811D911DA11D20D009F468943F912AE0B3
:10206000269F11243019305D3193DEF6CF0108959B
:10207000462F4770405D4193B3E00FD0C9F7F6CFCC
:10208000462F4F70405D4A3318F0495D31FD405294
:10209000419302D0A9F7EACFB4E0A695979587952A
:1020A00077956795BA95C9F7009761057105089509
:1020B0009B01AC010A2E06945795479537952795B5
:1020C000BA95C9F7620F731F841F951FA01D08954D
:1020D000F894FFCF49024902000040001400540068
:1020E000000000002E018E00BB007B01EC00CA0046
:1020F000DE00000000006203350379040B032E03A9
:102100001B030C030000000026068E0079047804EF
:10211000252D313673002564202C2564205B256431
:102120005D005B5B4A6F79737469636B5D5D000092
:107E0000112484B714BE81FFF0D085E080938100F7
:107E100082E08093C00088E18093C10086E0809377
:107E2000C20080E18093C4008EE0C9D0259A86E02C
:107E300020E33CEF91E0309385002093840096BBD3
:107E4000B09BFECF1D9AA8958150A9F7CC24DD24C4
:107E500088248394B5E0AB2EA1E19A2EF3E0BF2EE7
:107E6000A2D0813461F49FD0082FAFD0023811F036
:107E7000013811F484E001C083E08DD089C08234E0
:107E800011F484E103C0853419F485E0A6D080C0E4
:107E9000853579F488D0E82EFF2485D0082F10E0AE
:107EA000102F00270E291F29000F111F8ED06801E7
:107EB0006FC0863521F484E090D080E0DECF843638
:107EC00009F040C070D06FD0082F6DD080E0C81688
:107ED00080E7D80618F4F601B7BEE895C0E0D1E017
:107EE00062D089930C17E1F7F0E0CF16F0E7DF06D8
:107EF00018F0F601B7BEE89568D007B600FCFDCFD4
:107F0000A601A0E0B1E02C9130E011968C91119780
:107F100090E0982F8827822B932B1296FA010C0160
:107F200087BEE89511244E5F5F4FF1E0A038BF0790
:107F300051F7F601A7BEE89507B600FCFDCF97BE46
:107F4000E89526C08437B1F42ED02DD0F82E2BD052
:107F50003CD0F601EF2C8F010F5F1F4F84911BD097
:107F6000EA94F801C1F70894C11CD11CFA94CF0C13
:107F7000D11C0EC0853739F428D08EE10CD085E9AC
:107F80000AD08FE07ACF813511F488E018D01DD067
:107F900080E101D065CF982F8091C00085FFFCCF94
:107FA0009093C60008958091C00087FFFCCF809118
:107FB000C00084FD01C0A8958091C6000895E0E648
:107FC000F0E098E1908380830895EDDF803219F02E
:107FD00088E0F5DFFFCF84E1DECF1F93182FE3DFCA
:107FE0001150E9F7F2DF1F91089580E0E8DFEE27F6
:047FF000FF270994CA
:027FFE00040479
:00000001FF
