:020000040000FA
:100000000C9462000C944E070C9427070C948A0001
:100010000C948A000C948A000C948A000C948A0038
:100020000C948A000C948A000C948A000C94750736
:100030000C948A000C948A000C948A000C948A0018
:100040000C94DD060C948A000C94AB060C94850687
:100050000C948A000C948A000C948A000C948A00F8
:100060000C9431080C948A00000000002300260044
:10007000290000000008000201000003040700003E
:1000800000000000000000000000250028002B00F8
:1000900000000000240027002A00040404040404D3
:1000A0000404020202020202030303030303010227
:1000B00004081020408001020408102001020408F6
:1000C0001020880911241FBECFEFD8E0DEBFCDBFBE
:1000D00011E0A0E0B1E0E4E1F0E202C005900D9291
:1000E000AC35B107D9F724E0ACE5B1E001C01D9211
:1000F000A336B207E1F710E0C2E6D0E004C02197D2
:10010000FE010E94610DC136D107C9F70E944F0A56
:100110000C9408100C9400008F929F92AF92BF92A3
:10012000FF920F931F93CF93DF93F0909B032BE0ED
:100130002F1508F44CC020919D0308E512E0021B26
:10014000110927FD1395000F111F000F111F20919A
:100150009C03C8E8D0E0C21BD10927FDD395CC0F82
:10016000DD1FCC0FDD1F4E010D2E000CAA08BB08B1
:100170009801012E000C440B550B281939094A0926
:100180005B09DC010E94E50C24EB30E040E050E02C
:100190000E94BB0C820E931EA41EB51E8C169D06DB
:1001A0002CF0E801801691060CF4E4012297CC0FA4
:1001B000DD1F2FB7F8948F2D90E0FC01EE0FFF1F8D
:1001C000E80FF91FE653FD4FD283C1832FBFDF91A4
:1001D000CF911F910F91FF90BF90AF909F908F9004
:1001E0000895CF92DF92EF92FF926B017C01E09134
:1001F0003102F091320282E08083C11481EED80690
:10020000E104F104A1F060E079E08DE390E0A70162
:1002100096010E94240D215031094109510956953A
:10022000479537952795211580E13807A8F0E0918B
:100230003102F0913202108260E874E88EE190E0C1
:10024000A70196010E94240D21503109410951094D
:100250005695479537952795E0912D02F0912E02FE
:100260003083E0912F02F091300220831092390206
:10027000E0913502F091360286E08083E09133020E
:10028000F0913402808180618083E0913302F091AB
:100290003402808188608083E0913302F0913402DF
:1002A000808180688083E0913302F0913402808104
:1002B0008F7D8083FF90EF90DF90CF900895089519
:1002C0000895AF92BF92CF92DF92EF92FF920F9379
:1002D0001F93CF93DF936C017B018B01040F151FDC
:1002E000EB015E01AE18BF08C017D10759F0699144
:1002F000D601ED91FC910190F081E02DC6010995A8
:10030000892B79F7C501DF91CF911F910F91FF9054
:10031000EF90DF90CF90BF90AF900895FC01538D88
:10032000448D252F30E0842F90E0821B930B5417CF
:1003300010F0CF96089501970895FC01918D828D5C
:10034000981761F0A28DAE0FBF2FB11D5D968C91F5
:10035000928D9F5F9F73928F90E008958FEF9FEF34
:100360000895FC01918D828D981731F0828DE80FF0
:10037000F11D858D90E008958FEF9FEF0895FC01AA
:10038000918D228D892F90E0805C9F4F821B910977
:100390008F739927089581E292E00E94BF0121E0C6
:1003A000892B09F420E0822F089580E090E0892BCA
:1003B00029F00E94CB0181110C9400000895FC01EA
:1003C000A48DA80FB92FB11DA35ABF4F2C91848DB6
:1003D00090E001968F739927848FA689B7892C9313
:1003E000A089B1898C91837080648C93938D848D66
:1003F000981306C00288F389E02D80818F7D808369
:100400000895EF92FF920F931F93CF93DF93EC0128
:1004100081E0888F9B8D8C8D98131AC0E889F989AB
:10042000808185FF15C09FB7F894EE89FF896083AE
:10043000E889F98980818370806480839FBF81E02F
:1004400090E0DF91CF911F910F91FF90EF90089571
:10045000F62E0B8D10E00F5F1F4F0F731127E02E4C
:100460008C8D8E110CC00FB607FCFACFE889F98984
:10047000808185FFF5CFCE010E94DF01F1CFEB8DAA
:10048000EC0FFD2FF11DE35AFF4FF0829FB7F89458
:100490000B8FEA89FB8980818062CFCFCF93DF9376
:1004A000EC01888D8823B9F0AA89BB89E889F9898C
:1004B0008C9185FD03C0808186FD0DC00FB607FCC1
:1004C000F7CF8C9185FFF2CF808185FFEDCFCE01F4
:1004D0000E94DF01E9CFDF91CF910895833081F051
:1004E00028F4813099F08230A9F008958730A9F07E
:1004F0008830C9F08430B1F4809180008F7D03C0D2
:10050000809180008F7780938000089584B58F77E5
:1005100084BD089584B58F7DFBCF8091B0008F7727
:100520008093B00008958091B0008F7DF9CFCF9374
:10053000DF93282F30E0F901EE58FF4F8491F90145
:10054000E255FF4FD491F901E656FF4FC491CC23F9
:10055000A1F081110E946E02EC2FF0E0EE0FFF1F60
:10056000E859FF4FA591B491EC91ED2381E090E023
:1005700009F480E0DF91CF91089580E090E0FACF18
:100580001F93CF93DF93282F30E0F901EE58FF4FF0
:100590008491F901E255FF4FD491F901E656FF4FDE
:1005A000C491CC23A9F0162F81110E946E02EC2F6A
:1005B000F0E0EE0FFF1FEA57FF4FA591B4918FB700
:1005C000F894EC91111108C0D095DE23DC938FBF15
:1005D000DF91CF911F910895DE2BF8CF3FB7F894AC
:1005E0008091110290911202A0911302B091140215
:1005F00026B5A89B05C02F3F19F00196A11DB11D7E
:100600003FBFBA2FA92F982F8827BC01CD01620FB9
:10061000711D811D911D42E0660F771F881F991F74
:100620004A95D1F708958F929F92AF92BF92CF9241
:10063000DF92EF92FF924B015C010E94EE026B0190
:100640007C010E94EE026C197D098E099F09683EAB
:10065000734081059105A8F321E0821A9108A10851
:10066000B10888EEC80E83E0D81EE11CF11C81148D
:100670009104A104B10429F7FF90EF90DF90CF908F
:10068000BF90AF909F908F90089508952091C501DD
:10069000260F3327331F21323105ECF42091E90175
:1006A000FC0190E080E0243069F082E00895A091A0
:1006B000C5012191AC014B555E4FA40FB52FB11D63
:1006C0002C930196861798F38091C501680F60936B
:1006D000C50180E0089581E008951092E90181E06C
:1006E0008093EB011092EA0161E082E10E94C00276
:1006F00061E083E10E94C002E9EBF0E080818E7F3F
:10070000808380818D7F808388E48093B80085E436
:100710008093BC000895CF93DF9391E09093A40160
:100720008823B9F0C091B800D091BA008091BC0084
:100730008A7B8093BC0060E082E10E94C00260E09E
:1007400083E10E94C0020E946D03D093BA00C0935F
:10075000B800DF91CF9108950895E0911C02809137
:100760001B02E81730F4F0E0E158FE4F808190E082
:1007700008958FEF9FEF089590911C0280911B02C6
:100780002FEF3FEF981748F4E92FF0E0E158FE4FC4
:10079000208130E09F5F90931C02C90108958091F1
:1007A0001B0290911C02891B990B0895CF92DF9236
:1007B000EF92FF920F931F93CF93DF937C01CB01B6
:1007C0008A0120917E01222389F0EB016B01C40E86
:1007D000D51ECC15DD0569F06991D701ED91FC912D
:1007E0000190F081E02DC7010995F3CF642F0E949D
:1007F0004603C801DF91CF911F910F91FF90EF90B9
:10080000DF90CF900895CF93DF931F92CDB7DEB7DF
:10081000698320917E012223F9F020911902203270
:1008200058F021E030E0FC013383228390E080E047
:100830000F90DF91CF91089580911A02E82FF0E098
:10084000E25AFE4F998190838F5F80931A028093C2
:10085000190281E090E0ECCF61E0CE0101960E94A8
:100860004603F7CFCF92DF92EF92FF920F931F9341
:10087000CF93DF93FC01C48121E020937E01C093DC
:100880005D0110921A02109219028385682B8EEB7B
:1008900092E00E940304D0911902D13208F092C074
:1008A0000E94EE026B017C018091E901811165C01B
:1008B00082E08093E90181E08093EB018FEF8093E8
:1008C000E80110920D02D0930C02AEE5B1E0ECEE1F
:1008D000F1E080E0D81385C010920E0280910E02E4
:1008E000CC0FC82BC0930E028091EA01813009F031
:1008F0007CC01092EA010E94EE026B017C018091A3
:100900000E028093BB008091A0019091A101A09163
:10091000A201B091A301892B8A2B8B2B99F00E9405
:10092000EE020091A0011091A1012091A20130914D
:10093000A3016C197D098E099F090617170728075F
:100940003907E0F18091BC0083FDD9CF85EC80931D
:10095000BC000E94EE026B017C018091E9018230B3
:1009600009F445C08091E8018F3F61F18091E80171
:10097000803241F18091E80125C08091A0019091E1
:10098000A101A091A201B091A301892B8A2B8B2BED
:1009900009F48ACF0E94EE020091A0011091A101FA
:1009A0002091A2013091A3016C197D098E099F0944
:1009B000061717072807390708F076CF80919F019F
:1009C0000E948B0310921A021092190210927E015B
:1009D000DF91CF911F910F91FF90EF90DF90CF901B
:1009E00008959D9191938F5F75CF85EEB0CF8091E3
:1009F000A0019091A101A091A201B091A301892B26
:100A00008A2B8B2B09F4A9CF0E94EE020091A00142
:100A10001091A1012091A2013091A3016C197D09CF
:100A20008E099F09061717072807390708F095CF81
:100A3000C5CF089590E080E0089585ED8093BC00D7
:100A40008091A0019091A101A091A201B091A30178
:100A50000796A11DB11D23E0B695A795979587959B
:100A60002A95D1F72091BC0024FD03C01092E90122
:100A700008954091A0015091A1016091A20170914F
:100A8000A301452B462B472B69F30097A105B10520
:100A900041F025E32A95F1F700000197A109B1097A
:100AA000E1CF80919F010C948B030F931F93CF9301
:100AB0008C01C62F0E9432046C2F6460C8010E9412
:100AC00032046C2F6B7FC8010E94320483EC90E0EB
:100AD0000197F1F7CF911F910F9108950F931F93F5
:100AE000CF93DF938C01D62FC42F607F642B0E949D
:100AF000550580E1D89FB00111246C2BC801DF910E
:100B0000CF911F910F910C945505EF92FF921F9377
:100B1000CF93DF93CDB7DEB769970FB6F894DEBFFA
:100B20000FBECDBF182F7F936F938EE391E09F93FD
:100B30008F93CE0101967C019F938F930E94670D46
:100B4000812F98E0E6E0F1E0DE01529601900D92EF
:100B50009A95E1F79091B2030F900F900F900F903C
:100B60000F900F90911710F48FEF890FE82FF0E09E
:100B7000EE0FFF1FEE0DFF1D6189606840E08AEAFD
:100B800093E00E946E05F70101900020E9F731978C
:100B9000AF014E195F09B7018AEA93E00E94610133
:100BA00069960FB6F894DEBF0FBECDBFDF91CF912F
:100BB0001F91FF90EF90089580915C01882351F17F
:100BC00080910001909101018A309105B4F42FB712
:100BD000F89440911D0250911E0260911F02709185
:100BE00020022FBF880F991F880F991FFC01EA551B
:100BF000FC4F408B518B628B738B81E080935C0147
:100C000080916204811169C064E471E081E090E048
:100C10000C9485058AE590E00E948C008091600428
:100C2000909161040A9764F4EEEDF3E090E080E0C7
:100C300021913191232B59F001968A309105C1F70A
:100C40008FEF9FEF9093010180930001D6CFFC01BD
:100C5000EE0FFF1FEE0FFF1FEE51FC4F48EB5BE066
:100C600060E070E0408B518B628B738BFC01EE0F68
:100C7000FF1FE253FC4F2EE636E0318B208BFC0148
:100C8000EE0FFF1FE65FFB4F21E030E0318B208B42
:100C9000FC01EE5BFB4F20832FB7F89440911D02BF
:100CA00050911E0260911F02709120022FBFFC0123
:100CB000EE0FFF1FEE0FFF1FEA55FC4F408B518BCD
:100CC000628B738B20916004309161042F5F3F4FE2
:100CD0003093610420936004B5CF089590E080E0E4
:100CE0000E948C0010925C0180916204811106C008
:100CF00069E471E081E090E00C948505089541E09D
:100D00000E946E0581E090E008951F920F920FB649
:100D10000F9211242F933F934F935F936F937F9381
:100D20008F939F93AF93BF93EF93FF9381E292E0F2
:100D30000E94DF01FF91EF91BF91AF919F918F9141
:100D40007F916F915F914F913F912F910F900FBEC7
:100D50000F901F9018951F920F920FB60F921124AB
:100D60002F938F939F93EF93FF93E0913102F09134
:100D700032028081E0913702F091380282FD1BC07F
:100D8000908180913A028F5F8F7320913B0282178E
:100D900041F0E0913A02F0E0EF5DFD4F958F8093D6
:100DA0003A02FF91EF919F918F912F910F900FBE7B
:100DB0000F901F9018958081F4CF1F920F920FB65D
:100DC0000F9211242F933F938F939F93AF93BF93D1
:100DD00080911D0290911E02A0911F02B0912002ED
:100DE0003091100223E0230F2D3758F50196A11DF5
:100DF000B11D2093100280931D0290931E02A093B8
:100E00001F02B09320028091110290911202A091D2
:100E10001302B09114020196A11DB11D809311021D
:100E200090931202A0931302B0931402BF91AF915A
:100E30009F918F913F912F910F900FBE0F901F9018
:100E4000189526E8230F0296A11DB11DD2CF1F923F
:100E50000F920FB60F9211242F933F934F935F93EE
:100E60006F937F938F939F93AF93BF93EF93FF9372
:100E7000E0910401F09105010995FF91EF91BF9177
:100E8000AF919F918F917F916F915F914F913F9122
:100E90002F910F900FBE0F901F9018951F920F92D9
:100EA0000FB60F9211242F933F934F935F936F933D
:100EB0007F938F939F93AF93BF93EF93FF93E091B3
:100EC0000201F09103010995FF91EF91BF91AF915C
:100ED0009F918F917F916F915F914F913F912F9152
:100EE0000F900FBE0F901F9018951F920F920FB684
:100EF0000F9211242F933F934F935F936F937F93A0
:100F00008F939F93AF93BF93CF93DF93EF93FF9311
:100F100080910F02C091EE02D0E087FF24C01092B2
:100F200085001092840080910F028F5F80930F02E2
:100F300080910F02082E000C990B8C179D0724F44A
:100F400080910F028C30C4F18091840090918500D3
:100F5000049680349C4908F47AC080918400909172
:100F60008500049676C080910F02082E000C990B24
:100F70008C179D07C4F6E0910F028E2FEE0F990B90
:100F8000FC01EE0FFF1FE80FF91FE653FD4F8081B4
:100F900086FFC9CFE0910F028E2FEE0F990BFC0157
:100FA000EE0FFF1FE80FF91FE653FD4F808160E051
:100FB0008F730E94C002B7CF2091840030918500CA
:100FC000E0910F028E2FEE0F990BFC01EE0FFF1F29
:100FD000E80FF91FE653FD4F81819281820F931F25
:100FE0009093890080938800E0910F028E2FEE0F7E
:100FF000990BFC01EE0FFF1FE80FF91FE653FD4FA1
:10100000808186FF11C0E0910F028E2FEE0F990BA9
:10101000FC01EE0FFF1FE80FF91FE653FD4F808123
:1010200061E08F730E94C002FF91EF91DF91CF9139
:10103000BF91AF919F918F917F916F915F914F91F0
:101040003F912F910F900FBE0F901F90189580E445
:101050009CE990938900809388008FEF80930F0222
:10106000E3CF1F920F920FB60F9211242F933F934D
:101070004F935F936F937F938F939F93AF93BF93A0
:10108000EF93FF938091B900887F803609F44AC0BE
:10109000F0F5883209F4A7C018F5803109F49BC037
:1010A000B8F4882309F4F9C0883009F494C0FF919A
:1010B000EF91BF91AF919F918F917F916F915F91D0
:1010C0004F913F912F910F900FBE0F901F90189549
:1010D000883109F488C0803251F78093E80114C048
:1010E000803409F49DC040F48033B9F38833F9F6B5
:1010F0008093E80185ECB0C0803509F485C088355F
:1011000009F496C0883499F60E941D05D0CF88391D
:1011100009F48CC038F5883729F050F4883611F07E
:10112000803729F683E08093E9011092E70157C0E8
:10113000883809F47BC0803919F0803809F0B7CFBE
:101140008091E701803208F071C0E091E70181E011
:101150008E0F8093E7018091BB00F0E0E953FE4FD2
:1011600080833DC0803B39F0E0F4803A09F479C0D7
:10117000883A09F09CCF84E08093E9011092C6017F
:101180001092C501E0911702F09118020995809123
:10119000C50181110FC081E08093C5011092A501A6
:1011A00009C0803C09F4A6CF883C09F4A3CF883B52
:1011B00009F07DCFE091C60181E08E0F8093C601DA
:1011C000F0E0EB55FE4F80818093BB009091C6010B
:1011D0008091C50129C080910E028093BB0085ECEF
:1011E0008093BC0064CF90910D0280910C029817FF
:1011F00058F5E0910D0281E08E0F80930D02F0E032
:10120000E451FE4F8081E9CFE0910D0281E08E0F25
:1012100080930D028091BB00F0E0E451FE4F80838B
:1012200090910D0280910C029817C8F285E8D8CFF2
:10123000E0910D0281E08E0F80930D028091BB0042
:10124000F0E0E451FE4F80838091EB0181115CCF8F
:1012500081E08093EA0184EA8093BC001092E90166
:1012600026CF85EC8093BC001092E9018091E701C4
:10127000803230F4E091E701F0E0E953FE4F108254
:101280006091E70170E0E0911502F091160287ECA1
:1012900091E009951092E7010ACF1092E80134CF4E
:1012A000CF92DF92EF92FF92CF93DF932FB7F89414
:1012B000C0901D02D0901E02E0901F02F09020020C
:1012C0002FBFEC01C457DF4FFC01B896BC019C0155
:1012D000245C3F4F199211921192DB01CD92DD9265
:1012E000ED92FD92BD01AF01425B5F4FDA011D92AD
:1012F0001C92E217F30771F786559F4FFC0111828C
:101300001082DF91CF91FF90EF90DF90CF90089502
:10131000CF93DF93109224021092230288EE93E081
:10132000A0E0B0E08093250290932602A0932702CC
:10133000B093280222E131E030932202209321026F
:1013400025EC30E030932E0220932D0224EC30E087
:101350003093300220932F0220EC30E030933202A1
:101360002093310221EC30E0309334022093330299
:1013700022EC30E0309336022093350226EC30E048
:10138000309338022093370210923A0210923B02B7
:1013900010923C0210923D021092C1021092C002C3
:1013A0008093C2029093C302A093C402B093C5027B
:1013B00084E291E09093BF028093BE0280E092ECC1
:1013C000A1E0B0E08093A6039093A703A093A803A5
:1013D000B093A9031092AD031092AC0386E391E0A1
:1013E0009093AB038093AA0387E28093AE0380E1DE
:1013F0008093B30382E08093B4031092B50386EB2D
:1014000093E00E9450091092620482E090E0909371
:101410009F0380939E03E0EBF0E02491ECE9F0E081
:1014200084918823C1F090E0880F991FFC01E05758
:10143000FF4FC591D491FC01EA57FF4FA591B4919C
:101440009FB7F8943881822F809583238883EC910D
:10145000E22BEC939FBF1092A1031092A003809106
:10146000EE028C30C0F491E0980F9093EE028093DE
:101470009B0390E0FC01EE0FFF1FE80FF91FE653FE
:10148000FD4F88EB9BE0928381838FEE92E0DF91AA
:10149000CF910C9450098FEF80939B03F6CFCF939D
:1014A000DF9300D000D0CDB7DEB7789484B58260EA
:1014B00084BD84B5816084BD85B5826085BD85B5F8
:1014C000816085BD80916E00816080936E00109276
:1014D00081008091810082608093810080918100F1
:1014E0008160809381008091800081608093800082
:1014F0008091B10084608093B1008091B0008160E0
:101500008093B00080917A00846080937A0080910B
:101510007A00826080937A0080917A008160809363
:101520007A0080917A00806880937A001092C100DE
:1015300060E072EC81E090E00E94F1006091A6030F
:101540007091A7038091A8039091A9030E94F100D4
:101550008091620481118AC010921C0210921B02B9
:1015600010921A02109219020E946D038FE591E009
:10157000909318028093170280E691E090931602F0
:10158000809315021092AF038091B403823018F05B
:1015900098E09093AF038093B20362E370E080E041
:1015A00090E00E9413036091B5038AEA93E00E94E1
:1015B000320468EE73E080E090E00E94130360E381
:1015C0008AEA93E00E9455058BE496E40197F1F7CF
:1015D00060E38AEA93E00E9455052BE436E4C901F2
:1015E0000197F1F760E38AEA93E00E94550583E5ED
:1015F00092E00197F1F760E28AEA93E00E945505D4
:101600006091AF03606240E08AEA93E00E946E0559
:1016100084E08093B00340E06CE08AEA93E00E94AB
:101620006E0540E061E08AEA93E00E946E058BE37C
:101630009FE10197F1F782E08093B10340E066E01B
:101640008AEA93E00E946E0540E062E08AEA93E055
:101650000E946E05ABE3BFE11197F1F788E080933C
:10166000B50360E08AEA93E00E94320480919B0314
:101670008C3008F068C0E3EBF0E02491EFE9F0E093
:101680008491882399F090E0880F991FFC01E0571E
:10169000FF4FA591B491FC01EA57FF4F85919491BA
:1016A0008FB7F894EC91E22BEC938FBF80919B0362
:1016B000282F30E0F901EE0FFF1FE20FF31FE65372
:1016C000FD4F9081907C9560908310929C031092C6
:1016D0009D032CE0622F0E94550D829FB0011124C2
:1016E00030E020E0AB01420F531FFA01EE0FFF1F65
:1016F000E40FF51FE653FD4F908196FD16C02F5F56
:101700003F4F2C30310571F781110FC010928000CE
:1017100082E0809381001092850010928400B19A3B
:1017200080916F00826080936F00E0919B038E2F09
:1017300090E0FC01EE0FFF1FE80FF91FE653FD4F8D
:1017400080818064808380916204811106C06FE48F
:1017500071E090E080E00E9485058CED95E090932B
:10176000A1038093A0030E946E0601E010E032E026
:10177000232E312C80919E030E9497029A838983A5
:101780006AE070E080E090E00E94130380919E0385
:101790000E949702E981FA81EF2B49F0892B39F4F5
:1017A000E091A003F091A103309709F009958FB75C
:1017B000F89480901D0290901E02A0901F02B0909D
:1017C00020028FBFEEEDF3E026EA33E03C832B836B
:1017D0003A83298390E080E0AF0142595F4FDA01FC
:1017E0001D921C92208131813296232BC9F1A9814F
:1017F000BA8150964D915D916D917C9153979D0169
:10180000245B3F4FD901CD90DD90ED90FC902401F9
:101810003501441A550A660A770A4C145D046E04B1
:101820007F04F0F04C0D5D1D6E1D7F1DA981BA81F6
:1018300050964D935D936D937C9353979C012E5BD3
:101840003B4FD9012C91222359F022AD33AD211504
:101850003105C9F59F0124593F4FD9010D931C93C0
:10186000019629813A812C5F3F4F3A8329838A3040
:10187000910509F0B1CFF12CE12CCB80DC8036EA68
:10188000C30ED11CD6018D919C9181309105C1F17F
:101890000297E9F1BFEFEB1AFB0AEB81FC8132966C
:1018A000FC83EB83FAE0EF16F10439F720E030E037
:1018B000232B09F45FCF0E94CB01882309F45ACF70
:1018C0000E94000057CF7F01BEE4EB0EF11CD70150
:1018D0006D917C91621773071CF6AF0144595F4FFD
:1018E000DA010D931C936F5F7F4FD7016D937C934B
:1018F000621773070CF4B4CFDA012D923C92B0CF8B
:10190000AB81BC81D896ED91FC910995C3CFAB8199
:10191000BC81D896ED91FC910995809160049091DD
:101920006104009709F4B6CFEB81FC8120AD31ADA5
:10193000232B09F4AFCF11AE10AEF701EE5BFB4FD6
:101940001082D6011D921C92F701EE0FFF1FEE0FC1
:10195000FF1FEE50FC4F1082118212821382EB8126
:10196000FC81E857FF4F1182108201979093610428
:10197000809360048FCF052E97FB1EF400940E9485
:10198000D20C57FD07D00E94240D07FC03D04EF463
:101990000C94D20C50954095309521953F4F4F4F68
:1019A0005F4F089590958095709561957F4F8F4F0B
:1019B0009F4F08950E94460DA59F900DB49F900DD6
:1019C000A49F800D911D11240895B7FF0C94DA0C8B
:1019D0000E94DA0C821B930B08952F923F924F9234
:1019E0005F926F927F928F929F92AF92BF92CF92AF
:1019F000DF92EF92FF920F931F93CF93DF93CDB7B8
:101A0000DEB7CA1BDB0B0FB6F894DEBF0FBECDBF2F
:101A100009942A88398848885F846E847D848C8400
:101A20009B84AA84B984C884DF80EE80FD800C8109
:101A30001B81AA81B981CE0FD11D0FB6F894DEBFEC
:101A40000FBECDBFED010895A1E21A2EAA1BBB1B4C
:101A5000FD010DC0AA1FBB1FEE1FFF1FA217B3077A
:101A6000E407F50720F0A21BB30BE40BF50B661F90
:101A7000771F881F991F1A9469F760957095809554
:101A800090959B01AC01BD01CF010895A29FB001CB
:101A9000B39FC001A39F700D811D1124911DB29FA2
:101AA000700D811D1124911D0895991B79E004C0CA
:101AB000991F961708F0961B881F7A95C9F780958D
:101AC0000895EE0FFF1F0590F491E02D0994AEE00C
:101AD000B0E0EDE6FDE00C94FB0C0D891E8986E07C
:101AE0008C831A8309838FEF9FE79E838D83AE01DA
:101AF000475E5F4F6F89788DCE0101960E948A0DF7
:101B00002F813885020F131FF80110822E96E4E012
:101B10000C94170DABE0B0E0E0E9FDE00C94ED0CA7
:101B20007C013B018A01FC0117821682838181FFBF
:101B3000C8C1CE0101965C01F7019381F30193FDC9
:101B4000859193FF81913F01882309F453C1853228
:101B500039F493FD859193FF81913F01853229F4FA
:101B6000B70190E00E947A0FE7CF912C212C312C05
:101B7000FFE1F31538F08B3211F190F4803209F166
:101B8000833229F137FC3CC020ED280F2A3050F574
:101B900036FE20C08AE0989E200D1124922E06C0A9
:101BA0008D3291F0803371F7689430F8F30193FD32
:101BB000859193FF81913F018111DACF21C0689413
:101BC00031F8689432F8F2CF689433F8EFCF689424
:101BD00034F8ECCFEAE02E9E200D1124222E6894DA
:101BE00035F8E4CF8E3229F436FC04C1689436F817
:101BF000DDCF8C3619F4689437F8D8CF8836B1F237
:101C0000982F9F7D95549330E0F08336A1F1833770
:101C1000C1F1833509F063C02801F2E04F0E511C79
:101C2000F801C080D180692D70E036FC02C06FEFF2
:101C30007FEFC6010E94640F4C01689437F882015F
:101C40000AC00C5F1F4FFFE3F98388248394912C13
:101C50006501E89437F833FE2DC0522C81149104AD
:101C600071F5552009F468CFB70180E290E00E9439
:101C70007A0F5A94F6CFF801808189830E5F1F4F47
:101C8000E4CF2801F2E04F0E511CF801C080D18052
:101C9000692D70E036FC02C06FEF7FEFC6010E9435
:101CA0006F0F4C018201D5CFB70180E290E00E9416
:101CB0007A0F2A942814190409F0B0F7CECFF60150
:101CC00037FC859137FE81916F01B70190E00E944A
:101CD0007A0F51105A94F1E08F1A9108BFCF8436D1
:101CE00019F0893609F077C0F80137FE6BC06081C2
:101CF0007181828193810C5F1F4FF32DFF763F2E00
:101D000097FF09C090958095709561957F4F8F4F93
:101D10009F4F689437F82AE030E0A5010E94AA0F8F
:101D2000C82ECA188C2C432C36FE0CC0E89440F800
:101D3000C91440F434FE05C032FC03C0F32DFE7E0E
:101D40004F2E892C44FE95C0FE01EC0DF11D8081C3
:101D5000803309F087C0242D297E422E842D88707F
:101D6000582E43FC95C040FE8FC09C2C821418F462
:101D70002C0C922C981844FE91C0B70180E390E09F
:101D80000E947A0F42FE09C088E790E041FE02C03F
:101D900088E590E0B7010E947A0FC91408F48AC060
:101DA000CA94D12C9FEFC91AD90ACA0CDB1CF601C0
:101DB00082916F01B70190E00E947A0FAC14BD04CC
:101DC000B1F74FCF60817181072E000C880B990B02
:101DD0000E5F1F4F92CFD32CE894D4F82AE030E066
:101DE000853739F1232D297FD22E8F3601F148F422
:101DF0008835A9F0F701868197812B96E2E10C9452
:101E0000090D803749F08837A9F7D4FE02C06894DD
:101E1000D2F820E130E00DC06894D4F8F6CF34FE5B
:101E200003C0822F8660D82E20E132E002C028E075
:101E300030E0F801D7FE0FC060817181828193810B
:101E40000C5F1F4FA5010E94AA0FC82ECA183D2C77
:101E5000E89437F867CF6081718190E080E00E5F91
:101E60001F4FF0CF42FC02C0839478CF83948394B9
:101E700075CF842D867809F471CFF6CFB70180E253
:101E800090E00E947A0F83948214C0F3512C73CF98
:101E9000522C5818821408F46ECFF8CF842D86780F
:101EA00009F47BCF8BE241FE80E247FC8DE2B70173
:101EB00090E071CFB70180E390E00E947A0F9A948E
:101EC0006CCF8FEF9FEF99CFFC0105906150704070
:101ED0000110D8F7809590958E0F9F1F0895FC01F3
:101EE0006150704001900110D8F7809590958E0F49
:101EF0009F1F08950F931F93CF93DF93182F092FE0
:101F0000EB018B8181FD09C01FEF0FEF812F902F17
:101F1000DF91CF911F910F91089582FF14C02E8100
:101F20003F818C819D81281739073CF4E881F98134
:101F3000CF0101969983888310838E819F810196BA
:101F40009F838E83E3CFE885F985812F0995892BBF
:101F5000A1F3DACFFA01AA27283051F1203181F11B
:101F6000E8946F936E7F6E5F7F4F8F4F9F4FAF4FA1
:101F7000B1E03ED0B4E03CD0670F781F891F9A1FB4
:101F8000A11D680F791F8A1F911DA11D6A0F711D68
:101F9000811D911DA11D20D009F468943F912AE074
:101FA000269F11243019305D3193DEF6CF0108955C
:101FB000462F4770405D4193B3E00FD0C9F7F6CF8D
:101FC000462F4F70405D4A3318F0495D31FD405255
:101FD000419302D0A9F7EACFB4E0A69597958795EB
:101FE00077956795BA95C9F70097610571050895CA
:101FF0009B01AC010A2E0694579547953795279576
:10200000BA95C9F7620F731F841F951FA01D08950D
:10201000F894FFCFFFFF4503450300004000140084
:10202000540000000000010261018E014E02BF0158
:102030009D01B101000000000304D6031A05AC03A2
:10204000CF03BC03AD03000000007F0661011A0549
:102050001905252D313673004F50454E00434C4F26
:102060005345005B5B4D696E69436F6D5D5D0000BC
:107E0000112484B714BE81FFF0D085E080938100F7
:107E100082E08093C00088E18093C10086E0809377
:107E2000C20080E18093C4008EE0C9D0259A86E02C
:107E300020E33CEF91E0309385002093840096BBD3
:107E4000B09BFECF1D9AA8958150A9F7CC24DD24C4
:107E500088248394B5E0AB2EA1E19A2EF3E0BF2EE7
:107E6000A2D0813461F49FD0082FAFD0023811F036
:107E7000013811F484E001C083E08DD089C08234E0
:107E800011F484E103C0853419F485E0A6D080C0E4
:107E9000853579F488D0E82EFF2485D0082F10E0AE
:107EA000102F00270E291F29000F111F8ED06801E7
:107EB0006FC0863521F484E090D080E0DECF843638
:107EC00009F040C070D06FD0082F6DD080E0C81688
:107ED00080E7D80618F4F601B7BEE895C0E0D1E017
:107EE00062D089930C17E1F7F0E0CF16F0E7DF06D8
:107EF00018F0F601B7BEE89568D007B600FCFDCFD4
:107F0000A601A0E0B1E02C9130E011968C91119780
:107F100090E0982F8827822B932B1296FA010C0160
:107F200087BEE89511244E5F5F4FF1E0A038BF0790
:107F300051F7F601A7BEE89507B600FCFDCF97BE46
:107F4000E89526C08437B1F42ED02DD0F82E2BD052
:107F50003CD0F601EF2C8F010F5F1F4F84911BD097
:107F6000EA94F801C1F70894C11CD11CFA94CF0C13
:107F7000D11C0EC0853739F428D08EE10CD085E9AC
:107F80000AD08FE07ACF813511F488E018D01DD067
:107F900080E101D065CF982F8091C00085FFFCCF94
:107FA0009093C60008958091C00087FFFCCF809118
:107FB000C00084FD01C0A8958091C6000895E0E648
:107FC000F0E098E1908380830895EDDF803219F02E
:107FD00088E0F5DFFFCF84E1DECF1F93182FE3DFCA
:107FE0001150E9F7F2DF1F91089580E0E8DFEE27F6
:047FF000FF270994CA
:027FFE00040479
:00000001FF
